:020000040800F2
:1000000098070020D5000008B5030008B7030008D2
:1000100000000000000000000000000000000000E0
:10002000000000000000000000000000BB0300080A
:100030000000000000000000BD030008BF0300082E
:10004000E7000008E7000008E7000008E7000008F4
:10005000E7000008E7000008E7000008E7000008E4
:10006000E7000008E7000008E7000008E7000008D4
:1000700065040008E7000008E7000008E700000842
:10008000E7000008E700000800000000E7000008A3
:10009000E7000008E7000008E7000008E7000008A4
:1000A000E70000085D050008E7000008B508000843
:1000B000E700000800000000E70000080000000062
:1000C0000348854600F092FC0048004761030008A1
:1000D000980700200448804704480047FEE7FEE7F1
:1000E000FEE7FEE7FEE7FEE7B9010008C1000008F1
:1000F0000CB5002001900090714800680121084370
:100100006F49086000BF6E480068022108400090F7
:100110000198401C01900098002804D10521090392
:1001200001988842EFD16648006802210840002803
:1001300002D00120009001E00020009000980128EA
:1001400039D111205F4908605D4840685C494860CA
:10015000084640684860084640687F21C9038843D4
:10016000574948600846406811210904084354492A
:1001700048600846006801210906084350490860A4
:1001800000BF4F4800680121490608400028F8D008
:100190004B484068800880004949486008464068EC
:1001A000022108434649486000BF454840680C2189
:1001B00008400828F9D10CBD10B54148006801215C
:1001C00008433F490860084640683F4908403C49A9
:1001D0004860084600683D490840394908600846BB
:1001E0000068012189048843354908600846406851
:1001F0003F2109048843324948600846C06A000923
:100200000001C8620846006BFF21543188432C4925
:1002100008630846406B400840004863002088603F
:10022000FFF766FF10BDF8B5002500240026002763
:10023000234840680C2108400546002D04D0042DB9
:1002400006D0082D2AD107E021482249086029E07C
:100250001F482049086025E0194840680F2189049B
:1002600008400446164840680321C9030840064672
:10027000A00C841C002E04D1174860431549086067
:100280000BE00F48C06A0007000F471C39461048B2
:1002900000F096FB60430F49086003E00C480D49ED
:1002A000086000BF00BF06484068F0210840000910
:1002B0000A490D5C07480068E84006490860F8BD37
:1002C00000100240002002400CB8FF08FFFFF6FEBD
:1002D00000127A000000002000093D000400002008
:1002E000BE4A116800BFBD4A1268521A8242FAD350
:1002F000704700BFBA480089022108400028F9D0A1
:10030000B8480078C007C00F002805D0B6488069FB
:10031000C9030843B4498861B24800788007C00F18
:10032000002806D0B0488069012149040843AE493D
:100330008861AE48AA49888100BFA9480089C007E2
:10034000C00F0028F9D0A848806901210843A649B8
:1003500088610846806902210843A3498861704783
:1003600000F056FBA24C601EA249884200D90CE066
:10037000601EA14948610321081F00F0F6F8002023
:100380009D4988610720086100BF00F083FB00F0F1
:10039000AEF900F007FA00F07DF9002091490870ED
:1003A0006420964988609648C86000208B490860A0
:1003B00000BFFEE7704700BFFEE77047704710B50B
:1003C00086480068401C854908600521834800680C
:1003D00000F0F6FA002944D101208A49086000F0B3
:1003E00025F989480468611C0246116020467D2178
:1003F000C90000F0E5FA002933D184480068401CA8
:100400008249086000208049086000BF80488068F9
:10041000012108437E49886000BF00BF7C48006816
:10042000C007C00F0028F9D000BF0020794908603C
:100430000AE00020774909684900774A5052754818
:100440000068401C73490860724800681028F0D3A7
:100450000020724908806E488068042108436C4976
:10046000886010BD6A48006814210840002806D141
:100470006B48008801210843694908806DE06448A1
:10048000006810210840002806D0614800681C213F
:1004900008435F49086060E05D4800680821084043
:1004A000002804D05A480068084359490860584851
:1004B00000680421084000284FD0554840300068AB
:1004C000544909684900544A505252480068400053
:1004D0001146085A514909884018504908804D482A
:1004E0000068401C0007C00E1146085A4B49098895
:1004F000081A4A49088047480068401C4549086076
:1005000008460068102822D100BF414880680421B5
:100510000840002805D03E488068102108433C4927
:10052000886000BF3A488068102108400028F9D14F
:1005300037488068022108433549886000BF344845
:100540008068C007C00F0028F9D100BF00BF314844
:1005500000680007000F2F4908607047192001212B
:100560008140304A116000BF704710B5002819DA89
:100570002D4A03071B0F083B9B089B00D25883079B
:10058000DC0EFF23A3409A438B071B0E8407E40E67
:10059000A3401A43244B0407240F083CA408A400DA
:1005A0001A511AE01F4A803A03231B02D21883080B
:1005B0009B00D2588307DC0EFF23A3409A438B078E
:1005C0001B0E8407E40EA3401A43164B803B032402
:1005D00024021B198408A4001A5110BD1400002025
:1005E00000300140340000200008004855AA0000F7
:1005F00080BB0000FFFFFF0000E000E0880000205B
:10060000F302000818000020240000202000002031
:100610000024014030000020680000202C00002051
:100620001C00002080E100E01CED00E010B500247B
:100630002BE020011649085C002825D02001401835
:100640004068401C2101124A891848602001114667
:1006500040184068210189188968884214D1002017
:100660002101505421018918486001202101891875
:100670004870200111464018C068002804D02001AD
:100680008018C16800208847641C022CD1D310BD9B
:10069000880000200020C349C8600AE00020C1494A
:1006A0004968C04AD2688854BE48C068401CBD49E9
:1006B000C860BC48C068FF21F5318842EED30020F5
:1006C000B849C86048610AE00020B6498968B54A5F
:1006D00052698854B3484069401CB2494861B148E6
:1006E0004069FA28F0D30020AE4948617047AE480F
:1006F0004069012149040843AB4948610920C0060B
:1007000000680121C90408430921C9060860084698
:1007100080880121490288430921C906888008464A
:1007200080680321890408430921C90688600846B6
:10073000C0680321890488430921C906C8600846A6
:1007400000680121490508430921C90608600846D7
:1007500080880121890208430921C906888008464A
:1007600080680321090508430921C90688600846F5
:10077000C0680321090588430921C906C8600846E5
:10078000406AF021884310300921C90648620846B2
:10079000406A0F2109028843FF3001300921C90650
:1007A0004862704710B58048806901218903084379
:1007B0007D4988617D487E4988812D20086000BF81
:1007C0007B48C069402108404028F9D17848006A38
:1007D00008437749086200211B2000F0ACF81B2079
:1007E00000F0A2F810BD10B56F484069012149041E
:1007F00008436D494861084680690121890308431F
:10080000694988610920C00600680121C9040843BC
:100810000921C90608600846006801214905084306
:100820000921C90608600846806803218904084335
:100830000921C90688600846406AFF211131084332
:100840000921C90648625848006B80088000564953
:1008500008630846006B0321084353490863544862
:10086000006801210843524908600846006889145D
:1008700088434F49086008464068032109038843BC
:100880004B4948604B488881084600680821084366
:100890004749086008460068042108434449086045
:1008A0000846006820210843414908601B2000F0E9
:1008B0003BF810BD3E48C06920210840202819D1CE
:1008C0003B482030808837494968364AD268885486
:1008D0003448C068401C3349C8600846C068FF21DE
:1008E000F53188421FD100202E49C860FF20F53025
:1008F000086218E02B482030007A401CC1B2294819
:10090000203001722A48C0690821084000280AD016
:100910002448007F401C234908772548006A0821A5
:100920000843234908627047C206D20E0121914054
:10093000214A1160704710B5002819DA1F4A0307D1
:100940001B0F083B9B089B00D2588307DC0EFF233C
:10095000A3409A438B071B0E8407E40EA3401A435F
:10096000164B0407240F083CA408A4001A5118E0F1
:10097000114A03231B02D21883089B00D258830715
:10098000DC0EFF23A3409A438B071B0E8407E40E63
:10099000A3401A43084B032424021B198408A40013
:1009A0001A5110BD3800002000100240E20400007F
:1009B000003801408813000000E100E01CED00E079
:1009C00030B50B46014600202022012409E00D46E7
:1009D000D5409D4205D31D469540491B254695406F
:1009E00040191546521E002DF1DC30BD064C012584
:1009F000064E05E0E36807CC2B430C3C98471034C7
:100A0000B442F7D3FFF760FBEC0C00080C0D0008B4
:100A10001E4840690121490408431C4948610846B1
:100A20004069012189040843184948611848006851
:100A300001210843164908600846808840084000A4
:100A4000888008468068012108431149886008466B
:100A5000C068012108430E49C860084600680421A7
:100A600008430B49086008468088022188430849EA
:100A70008880084680680421084305498860084644
:100A8000C068042108430249C86070470010024052
:100A900000080048884880690121C9020843864946
:100AA00088610846C069012108438349C861084636
:100AB000C069022108438049C8610920C006006856
:100AC0000121490408430921C906086008468088B5
:100AD000FF21013188430921C906888008468068C2
:100AE0000321090408430921C90688600846C06833
:100AF0000321090488430921C906C8600846406AE1
:100B0000022108430921C9064862084600680821F5
:100B100008430921C90608600846808802218843E5
:100B20000921C9068880084680680C2108430921EC
:100B3000C90688600846C0680C2188430921C90697
:100B4000C8600846006A202108430921C9060862D6
:100B50005A480068022108435849086008468088BE
:100B600040084000888008468068032108435349B4
:100B700088600846C06880088000C8600846006A2F
:100B8000012108434D4908624D480088012108436E
:100B90004B4908804A48203800888021084348494A
:100BA000203908800846008B082108434449203931
:100BB00008830846008B6021084341492039088397
:100BC000F0203F4908817D20C0003D492039C8629E
:100BD000401048633A48008801210843384908809A
:100BE00037482038008801210843354920390880DA
:100BF000344800881021084332490880480600889C
:100C000080210843C90508800846008BC9140843A1
:100C1000C90408830846008B0321490308430121C6
:100C200089070883F02027490881FF204E3081077B
:100C3000C862A720886323480088102108432149FF
:100C400008804806008801210843890708801E485B
:100C50000088891508431C4908801B4820380088F3
:100C6000802108431849203908800846808B0821D4
:100C700008431549203988830846808B6021084342
:100C800011492039888301200F49088130200E49FD
:100C90002039C8621820C8630B48008889150843AA
:100CA000094908800848203800880121084306497E
:100CB00020390880704700000010024000040048FE
:100CC000202C0140200000402004004002E008C821
:100CD000121F08C1002AFAD170477047002001E0B6
:100CE00001C1121F002AFBD1704700000C0D000843
:100CF0000000002068000000CC0C0008740D000803
:100D00006800002030070000DC0C0008006CDC02EA
:100D100000000000000000000102030406070809AB
:100D200000000000000000000000000000000000C3
:100D300000000000000000000000000000000000B3
:100D40000000000000380140A2010020A80000209F
:100D50000000000000000000000000000000000093
:100D60000000000000000000000000000000000083
:040D700000960000E9
:04000005080000C12E
:00000001FF
